{
    "_format": "hh-sol-artifact-1",
    "contractName": "B2DCollection",
    "sourceName": "contracts/Collection.sol",
    "abi": [
        {
            "inputs": [],
            "stateMutability": "nonpayable",
            "type": "constructor"
        },
        {
            "anonymous": false,
            "inputs": [
                {
                    "indexed": true,
                    "internalType": "address",
                    "name": "owner",
                    "type": "address"
                },
                {
                    "indexed": true,
                    "internalType": "address",
                    "name": "approved",
                    "type": "address"
                },
                {
                    "indexed": true,
                    "internalType": "uint256",
                    "name": "tokenId",
                    "type": "uint256"
                }
            ],
            "name": "Approval",
            "type": "event"
        },
        {
            "anonymous": false,
            "inputs": [
                {
                    "indexed": true,
                    "internalType": "address",
                    "name": "owner",
                    "type": "address"
                },
                {
                    "indexed": true,
                    "internalType": "address",
                    "name": "operator",
                    "type": "address"
                },
                {
                    "indexed": false,
                    "internalType": "bool",
                    "name": "approved",
                    "type": "bool"
                }
            ],
            "name": "ApprovalForAll",
            "type": "event"
        },
        {
            "anonymous": false,
            "inputs": [
                {
                    "indexed": true,
                    "internalType": "address",
                    "name": "previousOwner",
                    "type": "address"
                },
                {
                    "indexed": true,
                    "internalType": "address",
                    "name": "newOwner",
                    "type": "address"
                }
            ],
            "name": "OwnershipTransferred",
            "type": "event"
        },
        {
            "anonymous": false,
            "inputs": [
                {
                    "indexed": true,
                    "internalType": "address",
                    "name": "from",
                    "type": "address"
                },
                {
                    "indexed": true,
                    "internalType": "address",
                    "name": "to",
                    "type": "address"
                },
                {
                    "indexed": true,
                    "internalType": "uint256",
                    "name": "tokenId",
                    "type": "uint256"
                }
            ],
            "name": "Transfer",
            "type": "event"
        },
        {
            "inputs": [
                {
                    "internalType": "address",
                    "name": "to",
                    "type": "address"
                },
                {
                    "internalType": "uint256",
                    "name": "tokenId",
                    "type": "uint256"
                }
            ],
            "name": "approve",
            "outputs": [],
            "stateMutability": "nonpayable",
            "type": "function"
        },
        {
            "inputs": [
                {
                    "internalType": "address",
                    "name": "owner",
                    "type": "address"
                }
            ],
            "name": "balanceOf",
            "outputs": [
                {
                    "internalType": "uint256",
                    "name": "",
                    "type": "uint256"
                }
            ],
            "stateMutability": "view",
            "type": "function"
        },
        {
            "inputs": [],
            "name": "baseExtension",
            "outputs": [
                {
                    "internalType": "string",
                    "name": "",
                    "type": "string"
                }
            ],
            "stateMutability": "view",
            "type": "function"
        },
        {
            "inputs": [],
            "name": "baseURI",
            "outputs": [
                {
                    "internalType": "string",
                    "name": "",
                    "type": "string"
                }
            ],
            "stateMutability": "view",
            "type": "function"
        },
        {
            "inputs": [],
            "name": "cost",
            "outputs": [
                {
                    "internalType": "uint256",
                    "name": "",
                    "type": "uint256"
                }
            ],
            "stateMutability": "view",
            "type": "function"
        },
        {
            "inputs": [
                {
                    "internalType": "uint256",
                    "name": "tokenId",
                    "type": "uint256"
                }
            ],
            "name": "getApproved",
            "outputs": [
                {
                    "internalType": "address",
                    "name": "",
                    "type": "address"
                }
            ],
            "stateMutability": "view",
            "type": "function"
        },
        {
            "inputs": [
                {
                    "internalType": "address",
                    "name": "owner",
                    "type": "address"
                },
                {
                    "internalType": "address",
                    "name": "operator",
                    "type": "address"
                }
            ],
            "name": "isApprovedForAll",
            "outputs": [
                {
                    "internalType": "bool",
                    "name": "",
                    "type": "bool"
                }
            ],
            "stateMutability": "view",
            "type": "function"
        },
        {
            "inputs": [],
            "name": "maxMintAmount",
            "outputs": [
                {
                    "internalType": "uint256",
                    "name": "",
                    "type": "uint256"
                }
            ],
            "stateMutability": "view",
            "type": "function"
        },
        {
            "inputs": [],
            "name": "maxSupply",
            "outputs": [
                {
                    "internalType": "uint256",
                    "name": "",
                    "type": "uint256"
                }
            ],
            "stateMutability": "view",
            "type": "function"
        },
        {
            "inputs": [
                {
                    "internalType": "address",
                    "name": "_to",
                    "type": "address"
                },
                {
                    "internalType": "uint256",
                    "name": "_mintAmount",
                    "type": "uint256"
                }
            ],
            "name": "mint",
            "outputs": [],
            "stateMutability": "payable",
            "type": "function"
        },
        {
            "inputs": [],
            "name": "name",
            "outputs": [
                {
                    "internalType": "string",
                    "name": "",
                    "type": "string"
                }
            ],
            "stateMutability": "view",
            "type": "function"
        },
        {
            "inputs": [],
            "name": "owner",
            "outputs": [
                {
                    "internalType": "address",
                    "name": "",
                    "type": "address"
                }
            ],
            "stateMutability": "view",
            "type": "function"
        },
        {
            "inputs": [
                {
                    "internalType": "uint256",
                    "name": "tokenId",
                    "type": "uint256"
                }
            ],
            "name": "ownerOf",
            "outputs": [
                {
                    "internalType": "address",
                    "name": "",
                    "type": "address"
                }
            ],
            "stateMutability": "view",
            "type": "function"
        },
        {
            "inputs": [
                {
                    "internalType": "bool",
                    "name": "_state",
                    "type": "bool"
                }
            ],
            "name": "pause",
            "outputs": [],
            "stateMutability": "nonpayable",
            "type": "function"
        },
        {
            "inputs": [],
            "name": "paused",
            "outputs": [
                {
                    "internalType": "bool",
                    "name": "",
                    "type": "bool"
                }
            ],
            "stateMutability": "view",
            "type": "function"
        },
        {
            "inputs": [],
            "name": "renounceOwnership",
            "outputs": [],
            "stateMutability": "nonpayable",
            "type": "function"
        },
        {
            "inputs": [
                {
                    "internalType": "address",
                    "name": "from",
                    "type": "address"
                },
                {
                    "internalType": "address",
                    "name": "to",
                    "type": "address"
                },
                {
                    "internalType": "uint256",
                    "name": "tokenId",
                    "type": "uint256"
                }
            ],
            "name": "safeTransferFrom",
            "outputs": [],
            "stateMutability": "nonpayable",
            "type": "function"
        },
        {
            "inputs": [
                {
                    "internalType": "address",
                    "name": "from",
                    "type": "address"
                },
                {
                    "internalType": "address",
                    "name": "to",
                    "type": "address"
                },
                {
                    "internalType": "uint256",
                    "name": "tokenId",
                    "type": "uint256"
                },
                {
                    "internalType": "bytes",
                    "name": "_data",
                    "type": "bytes"
                }
            ],
            "name": "safeTransferFrom",
            "outputs": [],
            "stateMutability": "nonpayable",
            "type": "function"
        },
        {
            "inputs": [
                {
                    "internalType": "address",
                    "name": "operator",
                    "type": "address"
                },
                {
                    "internalType": "bool",
                    "name": "approved",
                    "type": "bool"
                }
            ],
            "name": "setApprovalForAll",
            "outputs": [],
            "stateMutability": "nonpayable",
            "type": "function"
        },
        {
            "inputs": [
                {
                    "internalType": "string",
                    "name": "_newBaseExtension",
                    "type": "string"
                }
            ],
            "name": "setBaseExtension",
            "outputs": [],
            "stateMutability": "nonpayable",
            "type": "function"
        },
        {
            "inputs": [
                {
                    "internalType": "string",
                    "name": "_newBaseURI",
                    "type": "string"
                }
            ],
            "name": "setBaseURI",
            "outputs": [],
            "stateMutability": "nonpayable",
            "type": "function"
        },
        {
            "inputs": [
                {
                    "internalType": "uint256",
                    "name": "_newmaxMintAmount",
                    "type": "uint256"
                }
            ],
            "name": "setmaxMintAmount",
            "outputs": [],
            "stateMutability": "nonpayable",
            "type": "function"
        },
        {
            "inputs": [
                {
                    "internalType": "bytes4",
                    "name": "interfaceId",
                    "type": "bytes4"
                }
            ],
            "name": "supportsInterface",
            "outputs": [
                {
                    "internalType": "bool",
                    "name": "",
                    "type": "bool"
                }
            ],
            "stateMutability": "view",
            "type": "function"
        },
        {
            "inputs": [],
            "name": "symbol",
            "outputs": [
                {
                    "internalType": "string",
                    "name": "",
                    "type": "string"
                }
            ],
            "stateMutability": "view",
            "type": "function"
        },
        {
            "inputs": [
                {
                    "internalType": "uint256",
                    "name": "index",
                    "type": "uint256"
                }
            ],
            "name": "tokenByIndex",
            "outputs": [
                {
                    "internalType": "uint256",
                    "name": "",
                    "type": "uint256"
                }
            ],
            "stateMutability": "view",
            "type": "function"
        },
        {
            "inputs": [
                {
                    "internalType": "address",
                    "name": "owner",
                    "type": "address"
                },
                {
                    "internalType": "uint256",
                    "name": "index",
                    "type": "uint256"
                }
            ],
            "name": "tokenOfOwnerByIndex",
            "outputs": [
                {
                    "internalType": "uint256",
                    "name": "",
                    "type": "uint256"
                }
            ],
            "stateMutability": "view",
            "type": "function"
        },
        {
            "inputs": [
                {
                    "internalType": "uint256",
                    "name": "tokenId",
                    "type": "uint256"
                }
            ],
            "name": "tokenURI",
            "outputs": [
                {
                    "internalType": "string",
                    "name": "",
                    "type": "string"
                }
            ],
            "stateMutability": "view",
            "type": "function"
        },
        {
            "inputs": [],
            "name": "totalSupply",
            "outputs": [
                {
                    "internalType": "uint256",
                    "name": "",
                    "type": "uint256"
                }
            ],
            "stateMutability": "view",
            "type": "function"
        },
        {
            "inputs": [
                {
                    "internalType": "address",
                    "name": "from",
                    "type": "address"
                },
                {
                    "internalType": "address",
                    "name": "to",
                    "type": "address"
                },
                {
                    "internalType": "uint256",
                    "name": "tokenId",
                    "type": "uint256"
                }
            ],
            "name": "transferFrom",
            "outputs": [],
            "stateMutability": "nonpayable",
            "type": "function"
        },
        {
            "inputs": [
                {
                    "internalType": "address",
                    "name": "newOwner",
                    "type": "address"
                }
            ],
            "name": "transferOwnership",
            "outputs": [],
            "stateMutability": "nonpayable",
            "type": "function"
        },
        {
            "inputs": [
                {
                    "internalType": "address",
                    "name": "_owner",
                    "type": "address"
                }
            ],
            "name": "walletOfOwner",
            "outputs": [
                {
                    "internalType": "uint256[]",
                    "name": "",
                    "type": "uint256[]"
                }
            ],
            "stateMutability": "view",
            "type": "function"
        },
        {
            "inputs": [],
            "name": "withdraw",
            "outputs": [],
            "stateMutability": "payable",
            "type": "function"
        }
    ],
    "bytecode": "0x60806040526040518060400160405280600581526020017f2e6a736f6e000000000000000000000000000000000000000000000000000000815250600c90805190602001906200005192919062000224565b5066038d7ea4c68000600d556064600e556005600f556000601060006101000a81548160ff0219169083151502179055503480156200008f57600080fd5b506040518060400160405280601181526020017f424c4f434b7820436f6c6c656374696f6e0000000000000000000000000000008152506040518060400160405280600381526020017f424c78000000000000000000000000000000000000000000000000000000000081525081600090805190602001906200011492919062000224565b5080600190805190602001906200012d92919062000224565b50505062000150620001446200015660201b60201c565b6200015e60201b60201c565b62000339565b600033905090565b6000600a60009054906101000a900473ffffffffffffffffffffffffffffffffffffffff16905081600a60006101000a81548173ffffffffffffffffffffffffffffffffffffffff021916908373ffffffffffffffffffffffffffffffffffffffff1602179055508173ffffffffffffffffffffffffffffffffffffffff168173ffffffffffffffffffffffffffffffffffffffff167f8be0079c531659141344cd1fd0a4f28419497f9722a3daafe3b4186f6b6457e060405160405180910390a35050565b8280546200023290620002d4565b90600052602060002090601f016020900481019282620002565760008555620002a2565b82601f106200027157805160ff1916838001178555620002a2565b82800160010185558215620002a2579182015b82811115620002a157825182559160200191906001019062000284565b5b509050620002b19190620002b5565b5090565b5b80821115620002d0576000816000905550600101620002b6565b5090565b60006002820490506001821680620002ed57607f821691505b602082108114156200030457620003036200030a565b5b50919050565b7f4e487b7100000000000000000000000000000000000000000000000000000000600052602260045260246000fd5b61413c80620003496000396000f3fe6080604052600436106101e35760003560e01c80635c975abb11610102578063a22cb46511610095578063d5abeb0111610064578063d5abeb01146106d8578063da3ef23f14610703578063e985e9c51461072c578063f2fde38b14610769576101e3565b8063a22cb4651461061e578063b88d4fde14610647578063c668286214610670578063c87b56dd1461069b576101e3565b8063715018a6116100d1578063715018a6146105885780637f00c7a61461059f5780638da5cb5b146105c857806395d89b41146105f3576101e3565b80635c975abb146104b85780636352211e146104e35780636c0360eb1461052057806370a082311461054b576101e3565b806323b872dd1161017a57806342842e0e1161014957806342842e0e146103ec578063438b6300146104155780634f6ccce71461045257806355f804b31461048f576101e3565b806323b872dd146103605780632f745c59146103895780633ccfd60b146103c657806340c10f19146103d0576101e3565b8063095ea7b3116101b6578063095ea7b3146102b657806313faede6146102df57806318160ddd1461030a578063239c70ae14610335576101e3565b806301ffc9a7146101e857806302329a291461022557806306fdde031461024e578063081812fc14610279575b600080fd5b3480156101f457600080fd5b5061020f600480360381019061020a9190612e2d565b610792565b60405161021c9190613410565b60405180910390f35b34801561023157600080fd5b5061024c60048036038101906102479190612e04565b61080c565b005b34801561025a57600080fd5b506102636108a5565b604051610270919061342b565b60405180910390f35b34801561028557600080fd5b506102a0600480360381019061029b9190612ec0565b610937565b6040516102ad9190613387565b60405180910390f35b3480156102c257600080fd5b506102dd60048036038101906102d89190612dc8565b6109bc565b005b3480156102eb57600080fd5b506102f4610ad4565b60405161030191906136ad565b60405180910390f35b34801561031657600080fd5b5061031f610ada565b60405161032c91906136ad565b60405180910390f35b34801561034157600080fd5b5061034a610ae7565b60405161035791906136ad565b60405180910390f35b34801561036c57600080fd5b5061038760048036038101906103829190612cc2565b610aed565b005b34801561039557600080fd5b506103b060048036038101906103ab9190612dc8565b610b4d565b6040516103bd91906136ad565b60405180910390f35b6103ce610bf2565b005b6103ea60048036038101906103e59190612dc8565b610cae565b005b3480156103f857600080fd5b50610413600480360381019061040e9190612cc2565b610dd0565b005b34801561042157600080fd5b5061043c60048036038101906104379190612c5d565b610df0565b60405161044991906133ee565b60405180910390f35b34801561045e57600080fd5b5061047960048036038101906104749190612ec0565b610eea565b60405161048691906136ad565b60405180910390f35b34801561049b57600080fd5b506104b660048036038101906104b19190612e7f565b610f81565b005b3480156104c457600080fd5b506104cd611017565b6040516104da9190613410565b60405180910390f35b3480156104ef57600080fd5b5061050a60048036038101906105059190612ec0565b61102a565b6040516105179190613387565b60405180910390f35b34801561052c57600080fd5b506105356110dc565b604051610542919061342b565b60405180910390f35b34801561055757600080fd5b50610572600480360381019061056d9190612c5d565b61116a565b60405161057f91906136ad565b60405180910390f35b34801561059457600080fd5b5061059d611222565b005b3480156105ab57600080fd5b506105c660048036038101906105c19190612ec0565b6112aa565b005b3480156105d457600080fd5b506105dd611330565b6040516105ea9190613387565b60405180910390f35b3480156105ff57600080fd5b5061060861135a565b604051610615919061342b565b60405180910390f35b34801561062a57600080fd5b5061064560048036038101906106409190612d8c565b6113ec565b005b34801561065357600080fd5b5061066e60048036038101906106699190612d11565b611402565b005b34801561067c57600080fd5b50610685611464565b604051610692919061342b565b60405180910390f35b3480156106a757600080fd5b506106c260048036038101906106bd9190612ec0565b6114f2565b6040516106cf919061342b565b60405180910390f35b3480156106e457600080fd5b506106ed61159c565b6040516106fa91906136ad565b60405180910390f35b34801561070f57600080fd5b5061072a60048036038101906107259190612e7f565b6115a2565b005b34801561073857600080fd5b50610753600480360381019061074e9190612c86565b611638565b6040516107609190613410565b60405180910390f35b34801561077557600080fd5b50610790600480360381019061078b9190612c5d565b6116cc565b005b60007f780e9d63000000000000000000000000000000000000000000000000000000007bffffffffffffffffffffffffffffffffffffffffffffffffffffffff1916827bffffffffffffffffffffffffffffffffffffffffffffffffffffffff191614806108055750610804826117c4565b5b9050919050565b6108146118a6565b73ffffffffffffffffffffffffffffffffffffffff16610832611330565b73ffffffffffffffffffffffffffffffffffffffff1614610888576040517f08c379a000000000000000000000000000000000000000000000000000000000815260040161087f906135ed565b60405180910390fd5b80601060006101000a81548160ff02191690831515021790555050565b6060600080546108b4906139ab565b80601f01602080910402602001604051908101604052809291908181526020018280546108e0906139ab565b801561092d5780601f106109025761010080835404028352916020019161092d565b820191906000526020600020905b81548152906001019060200180831161091057829003601f168201915b5050505050905090565b6000610942826118ae565b610981576040517f08c379a0000000000000000000000000000000000000000000000000000000008152600401610978906135cd565b60405180910390fd5b6004600083815260200190815260200160002060009054906101000a900473ffffffffffffffffffffffffffffffffffffffff169050919050565b60006109c78261102a565b90508073ffffffffffffffffffffffffffffffffffffffff168373ffffffffffffffffffffffffffffffffffffffff161415610a38576040517f08c379a0000000000000000000000000000000000000000000000000000000008152600401610a2f9061362d565b60405180910390fd5b8073ffffffffffffffffffffffffffffffffffffffff16610a576118a6565b73ffffffffffffffffffffffffffffffffffffffff161480610a865750610a8581610a806118a6565b611638565b5b610ac5576040517f08c379a0000000000000000000000000000000000000000000000000000000008152600401610abc9061354d565b60405180910390fd5b610acf838361191a565b505050565b600d5481565b6000600880549050905090565b600f5481565b610afe610af86118a6565b826119d3565b610b3d576040517f08c379a0000000000000000000000000000000000000000000000000000000008152600401610b349061364d565b60405180910390fd5b610b48838383611ab1565b505050565b6000610b588361116a565b8210610b99576040517f08c379a0000000000000000000000000000000000000000000000000000000008152600401610b909061344d565b60405180910390fd5b600660008473ffffffffffffffffffffffffffffffffffffffff1673ffffffffffffffffffffffffffffffffffffffff168152602001908152602001600020600083815260200190815260200160002054905092915050565b610bfa6118a6565b73ffffffffffffffffffffffffffffffffffffffff16610c18611330565b73ffffffffffffffffffffffffffffffffffffffff1614610c6e576040517f08c379a0000000000000000000000000000000000000000000000000000000008152600401610c65906135ed565b60405180910390fd5b3373ffffffffffffffffffffffffffffffffffffffff166108fc479081150290604051600060405180830381858888f19350505050610cac57600080fd5b565b6000610cb8610ada565b9050601060009054906101000a900460ff1615610cd457600080fd5b60008211610ce157600080fd5b600f54821115610cf057600080fd5b600e548282610cff91906137e0565b1115610d0a57600080fd5b610d12611330565b73ffffffffffffffffffffffffffffffffffffffff163373ffffffffffffffffffffffffffffffffffffffff1614610d945781600d54610d529190613867565b3414610d93576040517f08c379a0000000000000000000000000000000000000000000000000000000008152600401610d8a9061366d565b60405180910390fd5b5b6000600190505b828111610dca57610db7848284610db291906137e0565b611d18565b8080610dc290613a0e565b915050610d9b565b50505050565b610deb83838360405180602001604052806000815250611402565b505050565b60606000610dfd8361116a565b905060008167ffffffffffffffff811115610e41577f4e487b7100000000000000000000000000000000000000000000000000000000600052604160045260246000fd5b604051908082528060200260200182016040528015610e6f5781602001602082028036833780820191505090505b50905060005b82811015610edf57610e878582610b4d565b828281518110610ec0577f4e487b7100000000000000000000000000000000000000000000000000000000600052603260045260246000fd5b6020026020010181815250508080610ed790613a0e565b915050610e75565b508092505050919050565b6000610ef4610ada565b8210610f35576040517f08c379a0000000000000000000000000000000000000000000000000000000008152600401610f2c9061368d565b60405180910390fd5b60088281548110610f6f577f4e487b7100000000000000000000000000000000000000000000000000000000600052603260045260246000fd5b90600052602060002001549050919050565b610f896118a6565b73ffffffffffffffffffffffffffffffffffffffff16610fa7611330565b73ffffffffffffffffffffffffffffffffffffffff1614610ffd576040517f08c379a0000000000000000000000000000000000000000000000000000000008152600401610ff4906135ed565b60405180910390fd5b80600b9080519060200190611013929190612a81565b5050565b601060009054906101000a900460ff1681565b6000806002600084815260200190815260200160002060009054906101000a900473ffffffffffffffffffffffffffffffffffffffff169050600073ffffffffffffffffffffffffffffffffffffffff168173ffffffffffffffffffffffffffffffffffffffff1614156110d3576040517f08c379a00000000000000000000000000000000000000000000000000000000081526004016110ca9061358d565b60405180910390fd5b80915050919050565b600b80546110e9906139ab565b80601f0160208091040260200160405190810160405280929190818152602001828054611115906139ab565b80156111625780601f1061113757610100808354040283529160200191611162565b820191906000526020600020905b81548152906001019060200180831161114557829003601f168201915b505050505081565b60008073ffffffffffffffffffffffffffffffffffffffff168273ffffffffffffffffffffffffffffffffffffffff1614156111db576040517f08c379a00000000000000000000000000000000000000000000000000000000081526004016111d29061356d565b60405180910390fd5b600360008373ffffffffffffffffffffffffffffffffffffffff1673ffffffffffffffffffffffffffffffffffffffff168152602001908152602001600020549050919050565b61122a6118a6565b73ffffffffffffffffffffffffffffffffffffffff16611248611330565b73ffffffffffffffffffffffffffffffffffffffff161461129e576040517f08c379a0000000000000000000000000000000000000000000000000000000008152600401611295906135ed565b60405180910390fd5b6112a86000611d36565b565b6112b26118a6565b73ffffffffffffffffffffffffffffffffffffffff166112d0611330565b73ffffffffffffffffffffffffffffffffffffffff1614611326576040517f08c379a000000000000000000000000000000000000000000000000000000000815260040161131d906135ed565b60405180910390fd5b80600f8190555050565b6000600a60009054906101000a900473ffffffffffffffffffffffffffffffffffffffff16905090565b606060018054611369906139ab565b80601f0160208091040260200160405190810160405280929190818152602001828054611395906139ab565b80156113e25780601f106113b7576101008083540402835291602001916113e2565b820191906000526020600020905b8154815290600101906020018083116113c557829003601f168201915b5050505050905090565b6113fe6113f76118a6565b8383611dfc565b5050565b61141361140d6118a6565b836119d3565b611452576040517f08c379a00000000000000000000000000000000000000000000000000000000081526004016114499061364d565b60405180910390fd5b61145e84848484611f69565b50505050565b600c8054611471906139ab565b80601f016020809104026020016040519081016040528092919081815260200182805461149d906139ab565b80156114ea5780601f106114bf576101008083540402835291602001916114ea565b820191906000526020600020905b8154815290600101906020018083116114cd57829003601f168201915b505050505081565b60606114fd826118ae565b61153c576040517f08c379a00000000000000000000000000000000000000000000000000000000081526004016115339061360d565b60405180910390fd5b6000611546611fc5565b905060008151116115665760405180602001604052806000815250611594565b8061157084611fe5565b600c60405160200161158493929190613356565b6040516020818303038152906040525b915050919050565b600e5481565b6115aa6118a6565b73ffffffffffffffffffffffffffffffffffffffff166115c8611330565b73ffffffffffffffffffffffffffffffffffffffff161461161e576040517f08c379a0000000000000000000000000000000000000000000000000000000008152600401611615906135ed565b60405180910390fd5b80600c9080519060200190611634929190612a81565b5050565b6000600560008473ffffffffffffffffffffffffffffffffffffffff1673ffffffffffffffffffffffffffffffffffffffff16815260200190815260200160002060008373ffffffffffffffffffffffffffffffffffffffff1673ffffffffffffffffffffffffffffffffffffffff16815260200190815260200160002060009054906101000a900460ff16905092915050565b6116d46118a6565b73ffffffffffffffffffffffffffffffffffffffff166116f2611330565b73ffffffffffffffffffffffffffffffffffffffff1614611748576040517f08c379a000000000000000000000000000000000000000000000000000000000815260040161173f906135ed565b60405180910390fd5b600073ffffffffffffffffffffffffffffffffffffffff168173ffffffffffffffffffffffffffffffffffffffff1614156117b8576040517f08c379a00000000000000000000000000000000000000000000000000000000081526004016117af9061348d565b60405180910390fd5b6117c181611d36565b50565b60007f80ac58cd000000000000000000000000000000000000000000000000000000007bffffffffffffffffffffffffffffffffffffffffffffffffffffffff1916827bffffffffffffffffffffffffffffffffffffffffffffffffffffffff1916148061188f57507f5b5e139f000000000000000000000000000000000000000000000000000000007bffffffffffffffffffffffffffffffffffffffffffffffffffffffff1916827bffffffffffffffffffffffffffffffffffffffffffffffffffffffff1916145b8061189f575061189e82612192565b5b9050919050565b600033905090565b60008073ffffffffffffffffffffffffffffffffffffffff166002600084815260200190815260200160002060009054906101000a900473ffffffffffffffffffffffffffffffffffffffff1673ffffffffffffffffffffffffffffffffffffffff1614159050919050565b816004600083815260200190815260200160002060006101000a81548173ffffffffffffffffffffffffffffffffffffffff021916908373ffffffffffffffffffffffffffffffffffffffff160217905550808273ffffffffffffffffffffffffffffffffffffffff1661198d8361102a565b73ffffffffffffffffffffffffffffffffffffffff167f8c5be1e5ebec7d5bd14f71427d1e84f3dd0314c0f7b2291e5b200ac8c7c3b92560405160405180910390a45050565b60006119de826118ae565b611a1d576040517f08c379a0000000000000000000000000000000000000000000000000000000008152600401611a149061352d565b60405180910390fd5b6000611a288361102a565b90508073ffffffffffffffffffffffffffffffffffffffff168473ffffffffffffffffffffffffffffffffffffffff161480611a6a5750611a698185611638565b5b80611aa857508373ffffffffffffffffffffffffffffffffffffffff16611a9084610937565b73ffffffffffffffffffffffffffffffffffffffff16145b91505092915050565b8273ffffffffffffffffffffffffffffffffffffffff16611ad18261102a565b73ffffffffffffffffffffffffffffffffffffffff1614611b27576040517f08c379a0000000000000000000000000000000000000000000000000000000008152600401611b1e906134ad565b60405180910390fd5b600073ffffffffffffffffffffffffffffffffffffffff168273ffffffffffffffffffffffffffffffffffffffff161415611b97576040517f08c379a0000000000000000000000000000000000000000000000000000000008152600401611b8e906134ed565b60405180910390fd5b611ba28383836121fc565b611bad60008261191a565b6001600360008573ffffffffffffffffffffffffffffffffffffffff1673ffffffffffffffffffffffffffffffffffffffff1681526020019081526020016000206000828254611bfd91906138c1565b925050819055506001600360008473ffffffffffffffffffffffffffffffffffffffff1673ffffffffffffffffffffffffffffffffffffffff1681526020019081526020016000206000828254611c5491906137e0565b92505081905550816002600083815260200190815260200160002060006101000a81548173ffffffffffffffffffffffffffffffffffffffff021916908373ffffffffffffffffffffffffffffffffffffffff160217905550808273ffffffffffffffffffffffffffffffffffffffff168473ffffffffffffffffffffffffffffffffffffffff167fddf252ad1be2c89b69c2b068fc378daa952ba7f163c4a11628f55a4df523b3ef60405160405180910390a4611d13838383612310565b505050565b611d32828260405180602001604052806000815250612315565b5050565b6000600a60009054906101000a900473ffffffffffffffffffffffffffffffffffffffff16905081600a60006101000a81548173ffffffffffffffffffffffffffffffffffffffff021916908373ffffffffffffffffffffffffffffffffffffffff1602179055508173ffffffffffffffffffffffffffffffffffffffff168173ffffffffffffffffffffffffffffffffffffffff167f8be0079c531659141344cd1fd0a4f28419497f9722a3daafe3b4186f6b6457e060405160405180910390a35050565b8173ffffffffffffffffffffffffffffffffffffffff168373ffffffffffffffffffffffffffffffffffffffff161415611e6b576040517f08c379a0000000000000000000000000000000000000000000000000000000008152600401611e629061350d565b60405180910390fd5b80600560008573ffffffffffffffffffffffffffffffffffffffff1673ffffffffffffffffffffffffffffffffffffffff16815260200190815260200160002060008473ffffffffffffffffffffffffffffffffffffffff1673ffffffffffffffffffffffffffffffffffffffff16815260200190815260200160002060006101000a81548160ff0219169083151502179055508173ffffffffffffffffffffffffffffffffffffffff168373ffffffffffffffffffffffffffffffffffffffff167f17307eab39ab6107e8899845ad3d59bd9653f200f220920489ca2b5937696c3183604051611f5c9190613410565b60405180910390a3505050565b611f74848484611ab1565b611f8084848484612370565b611fbf576040517f08c379a0000000000000000000000000000000000000000000000000000000008152600401611fb69061346d565b60405180910390fd5b50505050565b60606040518060600160405280603681526020016140d160369139905090565b6060600082141561202d576040518060400160405280600181526020017f3000000000000000000000000000000000000000000000000000000000000000815250905061218d565b600082905060005b6000821461205f57808061204890613a0e565b915050600a826120589190613836565b9150612035565b60008167ffffffffffffffff8111156120a1577f4e487b7100000000000000000000000000000000000000000000000000000000600052604160045260246000fd5b6040519080825280601f01601f1916602001820160405280156120d35781602001600182028036833780820191505090505b5090505b60008514612186576001826120ec91906138c1565b9150600a856120fb9190613a57565b603061210791906137e0565b60f81b818381518110612143577f4e487b7100000000000000000000000000000000000000000000000000000000600052603260045260246000fd5b60200101907effffffffffffffffffffffffffffffffffffffffffffffffffffffffffffff1916908160001a905350600a8561217f9190613836565b94506120d7565b8093505050505b919050565b60007f01ffc9a7000000000000000000000000000000000000000000000000000000007bffffffffffffffffffffffffffffffffffffffffffffffffffffffff1916827bffffffffffffffffffffffffffffffffffffffffffffffffffffffff1916149050919050565b612207838383612507565b600073ffffffffffffffffffffffffffffffffffffffff168373ffffffffffffffffffffffffffffffffffffffff16141561224a576122458161250c565b612289565b8173ffffffffffffffffffffffffffffffffffffffff168373ffffffffffffffffffffffffffffffffffffffff1614612288576122878382612555565b5b5b600073ffffffffffffffffffffffffffffffffffffffff168273ffffffffffffffffffffffffffffffffffffffff1614156122cc576122c7816126c2565b61230b565b8273ffffffffffffffffffffffffffffffffffffffff168273ffffffffffffffffffffffffffffffffffffffff161461230a576123098282612805565b5b5b505050565b505050565b61231f8383612884565b61232c6000848484612370565b61236b576040517f08c379a00000000000000000000000000000000000000000000000000000000081526004016123629061346d565b60405180910390fd5b505050565b60006123918473ffffffffffffffffffffffffffffffffffffffff16612a5e565b156124fa578373ffffffffffffffffffffffffffffffffffffffff1663150b7a026123ba6118a6565b8786866040518563ffffffff1660e01b81526004016123dc94939291906133a2565b602060405180830381600087803b1580156123f657600080fd5b505af192505050801561242757506040513d601f19601f820116820180604052508101906124249190612e56565b60015b6124aa573d8060008114612457576040519150601f19603f3d011682016040523d82523d6000602084013e61245c565b606091505b506000815114156124a2576040517f08c379a00000000000000000000000000000000000000000000000000000000081526004016124999061346d565b60405180910390fd5b805181602001fd5b63150b7a0260e01b7bffffffffffffffffffffffffffffffffffffffffffffffffffffffff1916817bffffffffffffffffffffffffffffffffffffffffffffffffffffffff1916149150506124ff565b600190505b949350505050565b505050565b6008805490506009600083815260200190815260200160002081905550600881908060018154018082558091505060019003906000526020600020016000909190919091505550565b600060016125628461116a565b61256c91906138c1565b9050600060076000848152602001908152602001600020549050818114612651576000600660008673ffffffffffffffffffffffffffffffffffffffff1673ffffffffffffffffffffffffffffffffffffffff168152602001908152602001600020600084815260200190815260200160002054905080600660008773ffffffffffffffffffffffffffffffffffffffff1673ffffffffffffffffffffffffffffffffffffffff168152602001908152602001600020600084815260200190815260200160002081905550816007600083815260200190815260200160002081905550505b6007600084815260200190815260200160002060009055600660008573ffffffffffffffffffffffffffffffffffffffff1673ffffffffffffffffffffffffffffffffffffffff16815260200190815260200160002060008381526020019081526020016000206000905550505050565b600060016008805490506126d691906138c1565b905060006009600084815260200190815260200160002054905060006008838154811061272c577f4e487b7100000000000000000000000000000000000000000000000000000000600052603260045260246000fd5b906000526020600020015490508060088381548110612774577f4e487b7100000000000000000000000000000000000000000000000000000000600052603260045260246000fd5b9060005260206000200181905550816009600083815260200190815260200160002081905550600960008581526020019081526020016000206000905560088054806127e9577f4e487b7100000000000000000000000000000000000000000000000000000000600052603160045260246000fd5b6001900381819060005260206000200160009055905550505050565b60006128108361116a565b905081600660008573ffffffffffffffffffffffffffffffffffffffff1673ffffffffffffffffffffffffffffffffffffffff168152602001908152602001600020600083815260200190815260200160002081905550806007600084815260200190815260200160002081905550505050565b600073ffffffffffffffffffffffffffffffffffffffff168273ffffffffffffffffffffffffffffffffffffffff1614156128f4576040517f08c379a00000000000000000000000000000000000000000000000000000000081526004016128eb906135ad565b60405180910390fd5b6128fd816118ae565b1561293d576040517f08c379a0000000000000000000000000000000000000000000000000000000008152600401612934906134cd565b60405180910390fd5b612949600083836121fc565b6001600360008473ffffffffffffffffffffffffffffffffffffffff1673ffffffffffffffffffffffffffffffffffffffff168152602001908152602001600020600082825461299991906137e0565b92505081905550816002600083815260200190815260200160002060006101000a81548173ffffffffffffffffffffffffffffffffffffffff021916908373ffffffffffffffffffffffffffffffffffffffff160217905550808273ffffffffffffffffffffffffffffffffffffffff16600073ffffffffffffffffffffffffffffffffffffffff167fddf252ad1be2c89b69c2b068fc378daa952ba7f163c4a11628f55a4df523b3ef60405160405180910390a4612a5a60008383612310565b5050565b6000808273ffffffffffffffffffffffffffffffffffffffff163b119050919050565b828054612a8d906139ab565b90600052602060002090601f016020900481019282612aaf5760008555612af6565b82601f10612ac857805160ff1916838001178555612af6565b82800160010185558215612af6579182015b82811115612af5578251825591602001919060010190612ada565b5b509050612b039190612b07565b5090565b5b80821115612b20576000816000905550600101612b08565b5090565b6000612b37612b32846136ed565b6136c8565b905082815260208101848484011115612b4f57600080fd5b612b5a848285613969565b509392505050565b6000612b75612b708461371e565b6136c8565b905082815260208101848484011115612b8d57600080fd5b612b98848285613969565b509392505050565b600081359050612baf81614074565b92915050565b600081359050612bc48161408b565b92915050565b600081359050612bd9816140a2565b92915050565b600081519050612bee816140a2565b92915050565b600082601f830112612c0557600080fd5b8135612c15848260208601612b24565b91505092915050565b600082601f830112612c2f57600080fd5b8135612c3f848260208601612b62565b91505092915050565b600081359050612c57816140b9565b92915050565b600060208284031215612c6f57600080fd5b6000612c7d84828501612ba0565b91505092915050565b60008060408385031215612c9957600080fd5b6000612ca785828601612ba0565b9250506020612cb885828601612ba0565b9150509250929050565b600080600060608486031215612cd757600080fd5b6000612ce586828701612ba0565b9350506020612cf686828701612ba0565b9250506040612d0786828701612c48565b9150509250925092565b60008060008060808587031215612d2757600080fd5b6000612d3587828801612ba0565b9450506020612d4687828801612ba0565b9350506040612d5787828801612c48565b925050606085013567ffffffffffffffff811115612d7457600080fd5b612d8087828801612bf4565b91505092959194509250565b60008060408385031215612d9f57600080fd5b6000612dad85828601612ba0565b9250506020612dbe85828601612bb5565b9150509250929050565b60008060408385031215612ddb57600080fd5b6000612de985828601612ba0565b9250506020612dfa85828601612c48565b9150509250929050565b600060208284031215612e1657600080fd5b6000612e2484828501612bb5565b91505092915050565b600060208284031215612e3f57600080fd5b6000612e4d84828501612bca565b91505092915050565b600060208284031215612e6857600080fd5b6000612e7684828501612bdf565b91505092915050565b600060208284031215612e9157600080fd5b600082013567ffffffffffffffff811115612eab57600080fd5b612eb784828501612c1e565b91505092915050565b600060208284031215612ed257600080fd5b6000612ee084828501612c48565b91505092915050565b6000612ef58383613338565b60208301905092915050565b612f0a816138f5565b82525050565b6000612f1b82613774565b612f2581856137a2565b9350612f308361374f565b8060005b83811015612f61578151612f488882612ee9565b9750612f5383613795565b925050600181019050612f34565b5085935050505092915050565b612f7781613907565b82525050565b6000612f888261377f565b612f9281856137b3565b9350612fa2818560208601613978565b612fab81613b44565b840191505092915050565b6000612fc18261378a565b612fcb81856137c4565b9350612fdb818560208601613978565b612fe481613b44565b840191505092915050565b6000612ffa8261378a565b61300481856137d5565b9350613014818560208601613978565b80840191505092915050565b6000815461302d816139ab565b61303781866137d5565b94506001821660008114613052576001811461306357613096565b60ff19831686528186019350613096565b61306c8561375f565b60005b8381101561308e5781548189015260018201915060208101905061306f565b838801955050505b50505092915050565b60006130ac602b836137c4565b91506130b782613b55565b604082019050919050565b60006130cf6032836137c4565b91506130da82613ba4565b604082019050919050565b60006130f26026836137c4565b91506130fd82613bf3565b604082019050919050565b60006131156025836137c4565b915061312082613c42565b604082019050919050565b6000613138601c836137c4565b915061314382613c91565b602082019050919050565b600061315b6024836137c4565b915061316682613cba565b604082019050919050565b600061317e6019836137c4565b915061318982613d09565b602082019050919050565b60006131a1602c836137c4565b91506131ac82613d32565b604082019050919050565b60006131c46038836137c4565b91506131cf82613d81565b604082019050919050565b60006131e7602a836137c4565b91506131f282613dd0565b604082019050919050565b600061320a6029836137c4565b915061321582613e1f565b604082019050919050565b600061322d6020836137c4565b915061323882613e6e565b602082019050919050565b6000613250602c836137c4565b915061325b82613e97565b604082019050919050565b60006132736020836137c4565b915061327e82613ee6565b602082019050919050565b6000613296602f836137c4565b91506132a182613f0f565b604082019050919050565b60006132b96021836137c4565b91506132c482613f5e565b604082019050919050565b60006132dc6031836137c4565b91506132e782613fad565b604082019050919050565b60006132ff6018836137c4565b915061330a82613ffc565b602082019050919050565b6000613322602c836137c4565b915061332d82614025565b604082019050919050565b6133418161395f565b82525050565b6133508161395f565b82525050565b60006133628286612fef565b915061336e8285612fef565b915061337a8284613020565b9150819050949350505050565b600060208201905061339c6000830184612f01565b92915050565b60006080820190506133b76000830187612f01565b6133c46020830186612f01565b6133d16040830185613347565b81810360608301526133e38184612f7d565b905095945050505050565b600060208201905081810360008301526134088184612f10565b905092915050565b60006020820190506134256000830184612f6e565b92915050565b600060208201905081810360008301526134458184612fb6565b905092915050565b600060208201905081810360008301526134668161309f565b9050919050565b60006020820190508181036000830152613486816130c2565b9050919050565b600060208201905081810360008301526134a6816130e5565b9050919050565b600060208201905081810360008301526134c681613108565b9050919050565b600060208201905081810360008301526134e68161312b565b9050919050565b600060208201905081810360008301526135068161314e565b9050919050565b6000602082019050818103600083015261352681613171565b9050919050565b6000602082019050818103600083015261354681613194565b9050919050565b60006020820190508181036000830152613566816131b7565b9050919050565b60006020820190508181036000830152613586816131da565b9050919050565b600060208201905081810360008301526135a6816131fd565b9050919050565b600060208201905081810360008301526135c681613220565b9050919050565b600060208201905081810360008301526135e681613243565b9050919050565b6000602082019050818103600083015261360681613266565b9050919050565b6000602082019050818103600083015261362681613289565b9050919050565b60006020820190508181036000830152613646816132ac565b9050919050565b60006020820190508181036000830152613666816132cf565b9050919050565b60006020820190508181036000830152613686816132f2565b9050919050565b600060208201905081810360008301526136a681613315565b9050919050565b60006020820190506136c26000830184613347565b92915050565b60006136d26136e3565b90506136de82826139dd565b919050565b6000604051905090565b600067ffffffffffffffff82111561370857613707613b15565b5b61371182613b44565b9050602081019050919050565b600067ffffffffffffffff82111561373957613738613b15565b5b61374282613b44565b9050602081019050919050565b6000819050602082019050919050565b60008190508160005260206000209050919050565b600081519050919050565b600081519050919050565b600081519050919050565b6000602082019050919050565b600082825260208201905092915050565b600082825260208201905092915050565b600082825260208201905092915050565b600081905092915050565b60006137eb8261395f565b91506137f68361395f565b9250827fffffffffffffffffffffffffffffffffffffffffffffffffffffffffffffffff0382111561382b5761382a613a88565b5b828201905092915050565b60006138418261395f565b915061384c8361395f565b92508261385c5761385b613ab7565b5b828204905092915050565b60006138728261395f565b915061387d8361395f565b9250817fffffffffffffffffffffffffffffffffffffffffffffffffffffffffffffffff04831182151516156138b6576138b5613a88565b5b828202905092915050565b60006138cc8261395f565b91506138d78361395f565b9250828210156138ea576138e9613a88565b5b828203905092915050565b60006139008261393f565b9050919050565b60008115159050919050565b60007fffffffff0000000000000000000000000000000000000000000000000000000082169050919050565b600073ffffffffffffffffffffffffffffffffffffffff82169050919050565b6000819050919050565b82818337600083830152505050565b60005b8381101561399657808201518184015260208101905061397b565b838111156139a5576000848401525b50505050565b600060028204905060018216806139c357607f821691505b602082108114156139d7576139d6613ae6565b5b50919050565b6139e682613b44565b810181811067ffffffffffffffff82111715613a0557613a04613b15565b5b80604052505050565b6000613a198261395f565b91507fffffffffffffffffffffffffffffffffffffffffffffffffffffffffffffffff821415613a4c57613a4b613a88565b5b600182019050919050565b6000613a628261395f565b9150613a6d8361395f565b925082613a7d57613a7c613ab7565b5b828206905092915050565b7f4e487b7100000000000000000000000000000000000000000000000000000000600052601160045260246000fd5b7f4e487b7100000000000000000000000000000000000000000000000000000000600052601260045260246000fd5b7f4e487b7100000000000000000000000000000000000000000000000000000000600052602260045260246000fd5b7f4e487b7100000000000000000000000000000000000000000000000000000000600052604160045260246000fd5b6000601f19601f8301169050919050565b7f455243373231456e756d657261626c653a206f776e657220696e646578206f7560008201527f74206f6620626f756e6473000000000000000000000000000000000000000000602082015250565b7f4552433732313a207472616e7366657220746f206e6f6e20455243373231526560008201527f63656976657220696d706c656d656e7465720000000000000000000000000000602082015250565b7f4f776e61626c653a206e6577206f776e657220697320746865207a65726f206160008201527f6464726573730000000000000000000000000000000000000000000000000000602082015250565b7f4552433732313a207472616e736665722066726f6d20696e636f72726563742060008201527f6f776e6572000000000000000000000000000000000000000000000000000000602082015250565b7f4552433732313a20746f6b656e20616c7265616479206d696e74656400000000600082015250565b7f4552433732313a207472616e7366657220746f20746865207a65726f2061646460008201527f7265737300000000000000000000000000000000000000000000000000000000602082015250565b7f4552433732313a20617070726f766520746f2063616c6c657200000000000000600082015250565b7f4552433732313a206f70657261746f7220717565727920666f72206e6f6e657860008201527f697374656e7420746f6b656e0000000000000000000000000000000000000000602082015250565b7f4552433732313a20617070726f76652063616c6c6572206973206e6f74206f7760008201527f6e6572206e6f7220617070726f76656420666f7220616c6c0000000000000000602082015250565b7f4552433732313a2062616c616e636520717565727920666f7220746865207a6560008201527f726f206164647265737300000000000000000000000000000000000000000000602082015250565b7f4552433732313a206f776e657220717565727920666f72206e6f6e657869737460008201527f656e7420746f6b656e0000000000000000000000000000000000000000000000602082015250565b7f4552433732313a206d696e7420746f20746865207a65726f2061646472657373600082015250565b7f4552433732313a20617070726f76656420717565727920666f72206e6f6e657860008201527f697374656e7420746f6b656e0000000000000000000000000000000000000000602082015250565b7f4f776e61626c653a2063616c6c6572206973206e6f7420746865206f776e6572600082015250565b7f4552433732314d657461646174613a2055524920717565727920666f72206e6f60008201527f6e6578697374656e7420746f6b656e0000000000000000000000000000000000602082015250565b7f4552433732313a20617070726f76616c20746f2063757272656e74206f776e6560008201527f7200000000000000000000000000000000000000000000000000000000000000602082015250565b7f4552433732313a207472616e736665722063616c6c6572206973206e6f74206f60008201527f776e6572206e6f7220617070726f766564000000000000000000000000000000602082015250565b7f4e65656420746f2073656e6420302e3038206574686572210000000000000000600082015250565b7f455243373231456e756d657261626c653a20676c6f62616c20696e646578206f60008201527f7574206f6620626f756e64730000000000000000000000000000000000000000602082015250565b61407d816138f5565b811461408857600080fd5b50565b61409481613907565b811461409f57600080fd5b50565b6140ab81613913565b81146140b657600080fd5b50565b6140c28161395f565b81146140cd57600080fd5b5056fe697066733a2f2f516d653745384a35684754546146655a446f486a7762446f6d4b5170394d5a377a676a75355176627858526272582fa2646970667358221220e703342a0c98c42446c747a4b2dd6ce079fca17c65d8b8eb577957d61770007b64736f6c63430008040033",
    "linkReferences": {},
    "deployedLinkReferences": {}
}