{
    "_format": "hh-sol-artifact-1",
    "contractName": "B2DRewards",
    "sourceName": "contracts/RewardToken.sol",
    "abi": [
        {
            "inputs": [],
            "stateMutability": "nonpayable",
            "type": "constructor"
        },
        {
            "anonymous": false,
            "inputs": [
                {
                    "indexed": true,
                    "internalType": "address",
                    "name": "owner",
                    "type": "address"
                },
                {
                    "indexed": true,
                    "internalType": "address",
                    "name": "spender",
                    "type": "address"
                },
                {
                    "indexed": false,
                    "internalType": "uint256",
                    "name": "value",
                    "type": "uint256"
                }
            ],
            "name": "Approval",
            "type": "event"
        },
        {
            "anonymous": false,
            "inputs": [
                {
                    "indexed": true,
                    "internalType": "address",
                    "name": "previousOwner",
                    "type": "address"
                },
                {
                    "indexed": true,
                    "internalType": "address",
                    "name": "newOwner",
                    "type": "address"
                }
            ],
            "name": "OwnershipTransferred",
            "type": "event"
        },
        {
            "anonymous": false,
            "inputs": [
                {
                    "indexed": true,
                    "internalType": "address",
                    "name": "from",
                    "type": "address"
                },
                {
                    "indexed": true,
                    "internalType": "address",
                    "name": "to",
                    "type": "address"
                },
                {
                    "indexed": false,
                    "internalType": "uint256",
                    "name": "value",
                    "type": "uint256"
                }
            ],
            "name": "Transfer",
            "type": "event"
        },
        {
            "inputs": [
                {
                    "internalType": "address",
                    "name": "controller",
                    "type": "address"
                }
            ],
            "name": "addController",
            "outputs": [],
            "stateMutability": "nonpayable",
            "type": "function"
        },
        {
            "inputs": [
                {
                    "internalType": "address",
                    "name": "owner",
                    "type": "address"
                },
                {
                    "internalType": "address",
                    "name": "spender",
                    "type": "address"
                }
            ],
            "name": "allowance",
            "outputs": [
                {
                    "internalType": "uint256",
                    "name": "",
                    "type": "uint256"
                }
            ],
            "stateMutability": "view",
            "type": "function"
        },
        {
            "inputs": [
                {
                    "internalType": "address",
                    "name": "spender",
                    "type": "address"
                },
                {
                    "internalType": "uint256",
                    "name": "amount",
                    "type": "uint256"
                }
            ],
            "name": "approve",
            "outputs": [
                {
                    "internalType": "bool",
                    "name": "",
                    "type": "bool"
                }
            ],
            "stateMutability": "nonpayable",
            "type": "function"
        },
        {
            "inputs": [
                {
                    "internalType": "address",
                    "name": "account",
                    "type": "address"
                }
            ],
            "name": "balanceOf",
            "outputs": [
                {
                    "internalType": "uint256",
                    "name": "",
                    "type": "uint256"
                }
            ],
            "stateMutability": "view",
            "type": "function"
        },
        {
            "inputs": [
                {
                    "internalType": "uint256",
                    "name": "amount",
                    "type": "uint256"
                }
            ],
            "name": "burn",
            "outputs": [],
            "stateMutability": "nonpayable",
            "type": "function"
        },
        {
            "inputs": [
                {
                    "internalType": "address",
                    "name": "account",
                    "type": "address"
                },
                {
                    "internalType": "uint256",
                    "name": "amount",
                    "type": "uint256"
                }
            ],
            "name": "burnFrom",
            "outputs": [],
            "stateMutability": "nonpayable",
            "type": "function"
        },
        {
            "inputs": [],
            "name": "decimals",
            "outputs": [
                {
                    "internalType": "uint8",
                    "name": "",
                    "type": "uint8"
                }
            ],
            "stateMutability": "view",
            "type": "function"
        },
        {
            "inputs": [
                {
                    "internalType": "address",
                    "name": "spender",
                    "type": "address"
                },
                {
                    "internalType": "uint256",
                    "name": "subtractedValue",
                    "type": "uint256"
                }
            ],
            "name": "decreaseAllowance",
            "outputs": [
                {
                    "internalType": "bool",
                    "name": "",
                    "type": "bool"
                }
            ],
            "stateMutability": "nonpayable",
            "type": "function"
        },
        {
            "inputs": [
                {
                    "internalType": "address",
                    "name": "spender",
                    "type": "address"
                },
                {
                    "internalType": "uint256",
                    "name": "addedValue",
                    "type": "uint256"
                }
            ],
            "name": "increaseAllowance",
            "outputs": [
                {
                    "internalType": "bool",
                    "name": "",
                    "type": "bool"
                }
            ],
            "stateMutability": "nonpayable",
            "type": "function"
        },
        {
            "inputs": [
                {
                    "internalType": "address",
                    "name": "to",
                    "type": "address"
                },
                {
                    "internalType": "uint256",
                    "name": "amount",
                    "type": "uint256"
                }
            ],
            "name": "mint",
            "outputs": [],
            "stateMutability": "nonpayable",
            "type": "function"
        },
        {
            "inputs": [],
            "name": "name",
            "outputs": [
                {
                    "internalType": "string",
                    "name": "",
                    "type": "string"
                }
            ],
            "stateMutability": "view",
            "type": "function"
        },
        {
            "inputs": [],
            "name": "owner",
            "outputs": [
                {
                    "internalType": "address",
                    "name": "",
                    "type": "address"
                }
            ],
            "stateMutability": "view",
            "type": "function"
        },
        {
            "inputs": [
                {
                    "internalType": "address",
                    "name": "controller",
                    "type": "address"
                }
            ],
            "name": "removeController",
            "outputs": [],
            "stateMutability": "nonpayable",
            "type": "function"
        },
        {
            "inputs": [],
            "name": "renounceOwnership",
            "outputs": [],
            "stateMutability": "nonpayable",
            "type": "function"
        },
        {
            "inputs": [],
            "name": "symbol",
            "outputs": [
                {
                    "internalType": "string",
                    "name": "",
                    "type": "string"
                }
            ],
            "stateMutability": "view",
            "type": "function"
        },
        {
            "inputs": [],
            "name": "totalSupply",
            "outputs": [
                {
                    "internalType": "uint256",
                    "name": "",
                    "type": "uint256"
                }
            ],
            "stateMutability": "view",
            "type": "function"
        },
        {
            "inputs": [
                {
                    "internalType": "address",
                    "name": "to",
                    "type": "address"
                },
                {
                    "internalType": "uint256",
                    "name": "amount",
                    "type": "uint256"
                }
            ],
            "name": "transfer",
            "outputs": [
                {
                    "internalType": "bool",
                    "name": "",
                    "type": "bool"
                }
            ],
            "stateMutability": "nonpayable",
            "type": "function"
        },
        {
            "inputs": [
                {
                    "internalType": "address",
                    "name": "from",
                    "type": "address"
                },
                {
                    "internalType": "address",
                    "name": "to",
                    "type": "address"
                },
                {
                    "internalType": "uint256",
                    "name": "amount",
                    "type": "uint256"
                }
            ],
            "name": "transferFrom",
            "outputs": [
                {
                    "internalType": "bool",
                    "name": "",
                    "type": "bool"
                }
            ],
            "stateMutability": "nonpayable",
            "type": "function"
        },
        {
            "inputs": [
                {
                    "internalType": "address",
                    "name": "newOwner",
                    "type": "address"
                }
            ],
            "name": "transferOwnership",
            "outputs": [],
            "stateMutability": "nonpayable",
            "type": "function"
        }
    ],
    "bytecode": "0x60806040523480156200001157600080fd5b506040518060400160405280600681526020017f424c4f434b7800000000000000000000000000000000000000000000000000008152506040518060400160405280600381526020017f424c580000000000000000000000000000000000000000000000000000000000815250816003908051906020019062000096929190620001a6565b508060049080519060200190620000af929190620001a6565b505050620000d2620000c6620000d860201b60201c565b620000e060201b60201c565b620002bb565b600033905090565b6000600560009054906101000a900473ffffffffffffffffffffffffffffffffffffffff16905081600560006101000a81548173ffffffffffffffffffffffffffffffffffffffff021916908373ffffffffffffffffffffffffffffffffffffffff1602179055508173ffffffffffffffffffffffffffffffffffffffff168173ffffffffffffffffffffffffffffffffffffffff167f8be0079c531659141344cd1fd0a4f28419497f9722a3daafe3b4186f6b6457e060405160405180910390a35050565b828054620001b49062000256565b90600052602060002090601f016020900481019282620001d8576000855562000224565b82601f10620001f357805160ff191683800117855562000224565b8280016001018555821562000224579182015b828111156200022357825182559160200191906001019062000206565b5b50905062000233919062000237565b5090565b5b808211156200025257600081600090555060010162000238565b5090565b600060028204905060018216806200026f57607f821691505b602082108114156200028657620002856200028c565b5b50919050565b7f4e487b7100000000000000000000000000000000000000000000000000000000600052602260045260246000fd5b611faf80620002cb6000396000f3fe608060405234801561001057600080fd5b50600436106101215760003560e01c8063715018a6116100ad578063a7fc7a0711610071578063a7fc7a071461030a578063a9059cbb14610326578063dd62ed3e14610356578063f2fde38b14610386578063f6a74ed7146103a257610121565b8063715018a61461027857806379cc6790146102825780638da5cb5b1461029e57806395d89b41146102bc578063a457c2d7146102da57610121565b8063313ce567116100f4578063313ce567146101c257806339509351146101e057806340c10f191461021057806342966c681461022c57806370a082311461024857610121565b806306fdde0314610126578063095ea7b31461014457806318160ddd1461017457806323b872dd14610192575b600080fd5b61012e6103be565b60405161013b9190611819565b60405180910390f35b61015e60048036038101906101599190611542565b610450565b60405161016b91906117fe565b60405180910390f35b61017c610473565b60405161018991906119db565b60405180910390f35b6101ac60048036038101906101a791906114f3565b61047d565b6040516101b991906117fe565b60405180910390f35b6101ca6104ac565b6040516101d791906119f6565b60405180910390f35b6101fa60048036038101906101f59190611542565b6104b5565b60405161020791906117fe565b60405180910390f35b61022a60048036038101906102259190611542565b6104ec565b005b6102466004803603810190610241919061157e565b610586565b005b610262600480360381019061025d919061148e565b61059a565b60405161026f91906119db565b60405180910390f35b6102806105e2565b005b61029c60048036038101906102979190611542565b61066a565b005b6102a66106da565b6040516102b391906117e3565b60405180910390f35b6102c4610704565b6040516102d19190611819565b60405180910390f35b6102f460048036038101906102ef9190611542565b610796565b60405161030191906117fe565b60405180910390f35b610324600480360381019061031f919061148e565b61080d565b005b610340600480360381019061033b9190611542565b6108e4565b60405161034d91906117fe565b60405180910390f35b610370600480360381019061036b91906114b7565b610907565b60405161037d91906119db565b60405180910390f35b6103a0600480360381019061039b919061148e565b61098e565b005b6103bc60048036038101906103b7919061148e565b610a86565b005b6060600380546103cd90611b3f565b80601f01602080910402602001604051908101604052809291908181526020018280546103f990611b3f565b80156104465780601f1061041b57610100808354040283529160200191610446565b820191906000526020600020905b81548152906001019060200180831161042957829003601f168201915b5050505050905090565b60008061045b610b5d565b9050610468818585610b65565b600191505092915050565b6000600254905090565b600080610488610b5d565b9050610495858285610d30565b6104a0858585610dbc565b60019150509392505050565b60006012905090565b6000806104c0610b5d565b90506104e18185856104d28589610907565b6104dc9190611a2d565b610b65565b600191505092915050565b600660003373ffffffffffffffffffffffffffffffffffffffff1673ffffffffffffffffffffffffffffffffffffffff16815260200190815260200160002060009054906101000a900460ff16610578576040517f08c379a000000000000000000000000000000000000000000000000000000000815260040161056f906118fb565b60405180910390fd5b610582828261103d565b5050565b610597610591610b5d565b8261119d565b50565b60008060008373ffffffffffffffffffffffffffffffffffffffff1673ffffffffffffffffffffffffffffffffffffffff168152602001908152602001600020549050919050565b6105ea610b5d565b73ffffffffffffffffffffffffffffffffffffffff166106086106da565b73ffffffffffffffffffffffffffffffffffffffff161461065e576040517f08c379a00000000000000000000000000000000000000000000000000000000081526004016106559061191b565b60405180910390fd5b6106686000611374565b565b600660003373ffffffffffffffffffffffffffffffffffffffff1673ffffffffffffffffffffffffffffffffffffffff16815260200190815260200160002060009054906101000a900460ff16156106cb576106c6828261119d565b6106d6565b6106d5828261143a565b5b5050565b6000600560009054906101000a900473ffffffffffffffffffffffffffffffffffffffff16905090565b60606004805461071390611b3f565b80601f016020809104026020016040519081016040528092919081815260200182805461073f90611b3f565b801561078c5780601f106107615761010080835404028352916020019161078c565b820191906000526020600020905b81548152906001019060200180831161076f57829003601f168201915b5050505050905090565b6000806107a1610b5d565b905060006107af8286610907565b9050838110156107f4576040517f08c379a00000000000000000000000000000000000000000000000000000000081526004016107eb9061199b565b60405180910390fd5b6108018286868403610b65565b60019250505092915050565b610815610b5d565b73ffffffffffffffffffffffffffffffffffffffff166108336106da565b73ffffffffffffffffffffffffffffffffffffffff1614610889576040517f08c379a00000000000000000000000000000000000000000000000000000000081526004016108809061191b565b60405180910390fd5b6001600660008373ffffffffffffffffffffffffffffffffffffffff1673ffffffffffffffffffffffffffffffffffffffff16815260200190815260200160002060006101000a81548160ff02191690831515021790555050565b6000806108ef610b5d565b90506108fc818585610dbc565b600191505092915050565b6000600160008473ffffffffffffffffffffffffffffffffffffffff1673ffffffffffffffffffffffffffffffffffffffff16815260200190815260200160002060008373ffffffffffffffffffffffffffffffffffffffff1673ffffffffffffffffffffffffffffffffffffffff16815260200190815260200160002054905092915050565b610996610b5d565b73ffffffffffffffffffffffffffffffffffffffff166109b46106da565b73ffffffffffffffffffffffffffffffffffffffff1614610a0a576040517f08c379a0000000000000000000000000000000000000000000000000000000008152600401610a019061191b565b60405180910390fd5b600073ffffffffffffffffffffffffffffffffffffffff168173ffffffffffffffffffffffffffffffffffffffff161415610a7a576040517f08c379a0000000000000000000000000000000000000000000000000000000008152600401610a719061187b565b60405180910390fd5b610a8381611374565b50565b610a8e610b5d565b73ffffffffffffffffffffffffffffffffffffffff16610aac6106da565b73ffffffffffffffffffffffffffffffffffffffff1614610b02576040517f08c379a0000000000000000000000000000000000000000000000000000000008152600401610af99061191b565b60405180910390fd5b6000600660008373ffffffffffffffffffffffffffffffffffffffff1673ffffffffffffffffffffffffffffffffffffffff16815260200190815260200160002060006101000a81548160ff02191690831515021790555050565b600033905090565b600073ffffffffffffffffffffffffffffffffffffffff168373ffffffffffffffffffffffffffffffffffffffff161415610bd5576040517f08c379a0000000000000000000000000000000000000000000000000000000008152600401610bcc9061197b565b60405180910390fd5b600073ffffffffffffffffffffffffffffffffffffffff168273ffffffffffffffffffffffffffffffffffffffff161415610c45576040517f08c379a0000000000000000000000000000000000000000000000000000000008152600401610c3c9061189b565b60405180910390fd5b80600160008573ffffffffffffffffffffffffffffffffffffffff1673ffffffffffffffffffffffffffffffffffffffff16815260200190815260200160002060008473ffffffffffffffffffffffffffffffffffffffff1673ffffffffffffffffffffffffffffffffffffffff168152602001908152602001600020819055508173ffffffffffffffffffffffffffffffffffffffff168373ffffffffffffffffffffffffffffffffffffffff167f8c5be1e5ebec7d5bd14f71427d1e84f3dd0314c0f7b2291e5b200ac8c7c3b92583604051610d2391906119db565b60405180910390a3505050565b6000610d3c8484610907565b90507fffffffffffffffffffffffffffffffffffffffffffffffffffffffffffffffff8114610db65781811015610da8576040517f08c379a0000000000000000000000000000000000000000000000000000000008152600401610d9f906118bb565b60405180910390fd5b610db58484848403610b65565b5b50505050565b600073ffffffffffffffffffffffffffffffffffffffff168373ffffffffffffffffffffffffffffffffffffffff161415610e2c576040517f08c379a0000000000000000000000000000000000000000000000000000000008152600401610e239061195b565b60405180910390fd5b600073ffffffffffffffffffffffffffffffffffffffff168273ffffffffffffffffffffffffffffffffffffffff161415610e9c576040517f08c379a0000000000000000000000000000000000000000000000000000000008152600401610e939061183b565b60405180910390fd5b610ea783838361145a565b60008060008573ffffffffffffffffffffffffffffffffffffffff1673ffffffffffffffffffffffffffffffffffffffff16815260200190815260200160002054905081811015610f2d576040517f08c379a0000000000000000000000000000000000000000000000000000000008152600401610f24906118db565b60405180910390fd5b8181036000808673ffffffffffffffffffffffffffffffffffffffff1673ffffffffffffffffffffffffffffffffffffffff16815260200190815260200160002081905550816000808573ffffffffffffffffffffffffffffffffffffffff1673ffffffffffffffffffffffffffffffffffffffff1681526020019081526020016000206000828254610fc09190611a2d565b925050819055508273ffffffffffffffffffffffffffffffffffffffff168473ffffffffffffffffffffffffffffffffffffffff167fddf252ad1be2c89b69c2b068fc378daa952ba7f163c4a11628f55a4df523b3ef8460405161102491906119db565b60405180910390a361103784848461145f565b50505050565b600073ffffffffffffffffffffffffffffffffffffffff168273ffffffffffffffffffffffffffffffffffffffff1614156110ad576040517f08c379a00000000000000000000000000000000000000000000000000000000081526004016110a4906119bb565b60405180910390fd5b6110b96000838361145a565b80600260008282546110cb9190611a2d565b92505081905550806000808473ffffffffffffffffffffffffffffffffffffffff1673ffffffffffffffffffffffffffffffffffffffff16815260200190815260200160002060008282546111209190611a2d565b925050819055508173ffffffffffffffffffffffffffffffffffffffff16600073ffffffffffffffffffffffffffffffffffffffff167fddf252ad1be2c89b69c2b068fc378daa952ba7f163c4a11628f55a4df523b3ef8360405161118591906119db565b60405180910390a36111996000838361145f565b5050565b600073ffffffffffffffffffffffffffffffffffffffff168273ffffffffffffffffffffffffffffffffffffffff16141561120d576040517f08c379a00000000000000000000000000000000000000000000000000000000081526004016112049061193b565b60405180910390fd5b6112198260008361145a565b60008060008473ffffffffffffffffffffffffffffffffffffffff1673ffffffffffffffffffffffffffffffffffffffff1681526020019081526020016000205490508181101561129f576040517f08c379a00000000000000000000000000000000000000000000000000000000081526004016112969061185b565b60405180910390fd5b8181036000808573ffffffffffffffffffffffffffffffffffffffff1673ffffffffffffffffffffffffffffffffffffffff1681526020019081526020016000208190555081600260008282546112f69190611a83565b92505081905550600073ffffffffffffffffffffffffffffffffffffffff168373ffffffffffffffffffffffffffffffffffffffff167fddf252ad1be2c89b69c2b068fc378daa952ba7f163c4a11628f55a4df523b3ef8460405161135b91906119db565b60405180910390a361136f8360008461145f565b505050565b6000600560009054906101000a900473ffffffffffffffffffffffffffffffffffffffff16905081600560006101000a81548173ffffffffffffffffffffffffffffffffffffffff021916908373ffffffffffffffffffffffffffffffffffffffff1602179055508173ffffffffffffffffffffffffffffffffffffffff168173ffffffffffffffffffffffffffffffffffffffff167f8be0079c531659141344cd1fd0a4f28419497f9722a3daafe3b4186f6b6457e060405160405180910390a35050565b61144c82611446610b5d565b83610d30565b611456828261119d565b5050565b505050565b505050565b60008135905061147381611f4b565b92915050565b60008135905061148881611f62565b92915050565b6000602082840312156114a057600080fd5b60006114ae84828501611464565b91505092915050565b600080604083850312156114ca57600080fd5b60006114d885828601611464565b92505060206114e985828601611464565b9150509250929050565b60008060006060848603121561150857600080fd5b600061151686828701611464565b935050602061152786828701611464565b925050604061153886828701611479565b9150509250925092565b6000806040838503121561155557600080fd5b600061156385828601611464565b925050602061157485828601611479565b9150509250929050565b60006020828403121561159057600080fd5b600061159e84828501611479565b91505092915050565b6115b081611ab7565b82525050565b6115bf81611ac9565b82525050565b60006115d082611a11565b6115da8185611a1c565b93506115ea818560208601611b0c565b6115f381611bcf565b840191505092915050565b600061160b602383611a1c565b915061161682611be0565b604082019050919050565b600061162e602283611a1c565b915061163982611c2f565b604082019050919050565b6000611651602683611a1c565b915061165c82611c7e565b604082019050919050565b6000611674602283611a1c565b915061167f82611ccd565b604082019050919050565b6000611697601d83611a1c565b91506116a282611d1c565b602082019050919050565b60006116ba602683611a1c565b91506116c582611d45565b604082019050919050565b60006116dd601983611a1c565b91506116e882611d94565b602082019050919050565b6000611700602083611a1c565b915061170b82611dbd565b602082019050919050565b6000611723602183611a1c565b915061172e82611de6565b604082019050919050565b6000611746602583611a1c565b915061175182611e35565b604082019050919050565b6000611769602483611a1c565b915061177482611e84565b604082019050919050565b600061178c602583611a1c565b915061179782611ed3565b604082019050919050565b60006117af601f83611a1c565b91506117ba82611f22565b602082019050919050565b6117ce81611af5565b82525050565b6117dd81611aff565b82525050565b60006020820190506117f860008301846115a7565b92915050565b600060208201905061181360008301846115b6565b92915050565b6000602082019050818103600083015261183381846115c5565b905092915050565b60006020820190508181036000830152611854816115fe565b9050919050565b6000602082019050818103600083015261187481611621565b9050919050565b6000602082019050818103600083015261189481611644565b9050919050565b600060208201905081810360008301526118b481611667565b9050919050565b600060208201905081810360008301526118d48161168a565b9050919050565b600060208201905081810360008301526118f4816116ad565b9050919050565b60006020820190508181036000830152611914816116d0565b9050919050565b60006020820190508181036000830152611934816116f3565b9050919050565b6000602082019050818103600083015261195481611716565b9050919050565b6000602082019050818103600083015261197481611739565b9050919050565b600060208201905081810360008301526119948161175c565b9050919050565b600060208201905081810360008301526119b48161177f565b9050919050565b600060208201905081810360008301526119d4816117a2565b9050919050565b60006020820190506119f060008301846117c5565b92915050565b6000602082019050611a0b60008301846117d4565b92915050565b600081519050919050565b600082825260208201905092915050565b6000611a3882611af5565b9150611a4383611af5565b9250827fffffffffffffffffffffffffffffffffffffffffffffffffffffffffffffffff03821115611a7857611a77611b71565b5b828201905092915050565b6000611a8e82611af5565b9150611a9983611af5565b925082821015611aac57611aab611b71565b5b828203905092915050565b6000611ac282611ad5565b9050919050565b60008115159050919050565b600073ffffffffffffffffffffffffffffffffffffffff82169050919050565b6000819050919050565b600060ff82169050919050565b60005b83811015611b2a578082015181840152602081019050611b0f565b83811115611b39576000848401525b50505050565b60006002820490506001821680611b5757607f821691505b60208210811415611b6b57611b6a611ba0565b5b50919050565b7f4e487b7100000000000000000000000000000000000000000000000000000000600052601160045260246000fd5b7f4e487b7100000000000000000000000000000000000000000000000000000000600052602260045260246000fd5b6000601f19601f8301169050919050565b7f45524332303a207472616e7366657220746f20746865207a65726f206164647260008201527f6573730000000000000000000000000000000000000000000000000000000000602082015250565b7f45524332303a206275726e20616d6f756e7420657863656564732062616c616e60008201527f6365000000000000000000000000000000000000000000000000000000000000602082015250565b7f4f776e61626c653a206e6577206f776e657220697320746865207a65726f206160008201527f6464726573730000000000000000000000000000000000000000000000000000602082015250565b7f45524332303a20617070726f766520746f20746865207a65726f20616464726560008201527f7373000000000000000000000000000000000000000000000000000000000000602082015250565b7f45524332303a20696e73756666696369656e7420616c6c6f77616e6365000000600082015250565b7f45524332303a207472616e7366657220616d6f756e742065786365656473206260008201527f616c616e63650000000000000000000000000000000000000000000000000000602082015250565b7f4f6e6c7920636f6e74726f6c6c6572732063616e206d696e7400000000000000600082015250565b7f4f776e61626c653a2063616c6c6572206973206e6f7420746865206f776e6572600082015250565b7f45524332303a206275726e2066726f6d20746865207a65726f2061646472657360008201527f7300000000000000000000000000000000000000000000000000000000000000602082015250565b7f45524332303a207472616e736665722066726f6d20746865207a65726f20616460008201527f6472657373000000000000000000000000000000000000000000000000000000602082015250565b7f45524332303a20617070726f76652066726f6d20746865207a65726f2061646460008201527f7265737300000000000000000000000000000000000000000000000000000000602082015250565b7f45524332303a2064656372656173656420616c6c6f77616e63652062656c6f7760008201527f207a65726f000000000000000000000000000000000000000000000000000000602082015250565b7f45524332303a206d696e7420746f20746865207a65726f206164647265737300600082015250565b611f5481611ab7565b8114611f5f57600080fd5b50565b611f6b81611af5565b8114611f7657600080fd5b5056fea2646970667358221220dd31ea12780f975be2711311203924f9cab78a669911fe45c4cf39d62d314d0964736f6c63430008040033",
    "linkReferences": {},
    "deployedLinkReferences": {}
}