{
    "_format": "hh-sol-artifact-1",
    "contractName": "NFTStaking",
    "sourceName": "contracts/Stake.sol",
    "abi": [
        {
            "inputs": [
                {
                    "internalType": "contract B2DCollection",
                    "name": "_nft",
                    "type": "address"
                },
                {
                    "internalType": "contract B2DRewards",
                    "name": "_token",
                    "type": "address"
                }
            ],
            "stateMutability": "nonpayable",
            "type": "constructor"
        },
        {
            "anonymous": false,
            "inputs": [
                {
                    "indexed": false,
                    "internalType": "address",
                    "name": "owner",
                    "type": "address"
                },
                {
                    "indexed": false,
                    "internalType": "uint256",
                    "name": "amount",
                    "type": "uint256"
                }
            ],
            "name": "Claimed",
            "type": "event"
        },
        {
            "anonymous": false,
            "inputs": [
                {
                    "indexed": false,
                    "internalType": "address",
                    "name": "owner",
                    "type": "address"
                },
                {
                    "indexed": false,
                    "internalType": "uint256",
                    "name": "tokenId",
                    "type": "uint256"
                },
                {
                    "indexed": false,
                    "internalType": "uint256",
                    "name": "value",
                    "type": "uint256"
                }
            ],
            "name": "NFTStaked",
            "type": "event"
        },
        {
            "anonymous": false,
            "inputs": [
                {
                    "indexed": false,
                    "internalType": "address",
                    "name": "owner",
                    "type": "address"
                },
                {
                    "indexed": false,
                    "internalType": "uint256",
                    "name": "tokenId",
                    "type": "uint256"
                },
                {
                    "indexed": false,
                    "internalType": "uint256",
                    "name": "value",
                    "type": "uint256"
                }
            ],
            "name": "NFTUnstaked",
            "type": "event"
        },
        {
            "anonymous": false,
            "inputs": [
                {
                    "indexed": true,
                    "internalType": "address",
                    "name": "previousOwner",
                    "type": "address"
                },
                {
                    "indexed": true,
                    "internalType": "address",
                    "name": "newOwner",
                    "type": "address"
                }
            ],
            "name": "OwnershipTransferred",
            "type": "event"
        },
        {
            "inputs": [
                {
                    "internalType": "address",
                    "name": "account",
                    "type": "address"
                }
            ],
            "name": "balanceOf",
            "outputs": [
                {
                    "internalType": "uint256",
                    "name": "",
                    "type": "uint256"
                }
            ],
            "stateMutability": "view",
            "type": "function"
        },
        {
            "inputs": [
                {
                    "internalType": "uint256[]",
                    "name": "tokenIds",
                    "type": "uint256[]"
                }
            ],
            "name": "claim",
            "outputs": [],
            "stateMutability": "nonpayable",
            "type": "function"
        },
        {
            "inputs": [
                {
                    "internalType": "address",
                    "name": "account",
                    "type": "address"
                },
                {
                    "internalType": "uint256[]",
                    "name": "tokenIds",
                    "type": "uint256[]"
                }
            ],
            "name": "claimForAddress",
            "outputs": [],
            "stateMutability": "nonpayable",
            "type": "function"
        },
        {
            "inputs": [
                {
                    "internalType": "address",
                    "name": "account",
                    "type": "address"
                },
                {
                    "internalType": "uint256[]",
                    "name": "tokenIds",
                    "type": "uint256[]"
                }
            ],
            "name": "earningInfo",
            "outputs": [
                {
                    "internalType": "uint256[1]",
                    "name": "info",
                    "type": "uint256[1]"
                }
            ],
            "stateMutability": "view",
            "type": "function"
        },
        {
            "inputs": [
                {
                    "internalType": "address",
                    "name": "",
                    "type": "address"
                },
                {
                    "internalType": "address",
                    "name": "from",
                    "type": "address"
                },
                {
                    "internalType": "uint256",
                    "name": "",
                    "type": "uint256"
                },
                {
                    "internalType": "bytes",
                    "name": "",
                    "type": "bytes"
                }
            ],
            "name": "onERC721Received",
            "outputs": [
                {
                    "internalType": "bytes4",
                    "name": "",
                    "type": "bytes4"
                }
            ],
            "stateMutability": "pure",
            "type": "function"
        },
        {
            "inputs": [],
            "name": "owner",
            "outputs": [
                {
                    "internalType": "address",
                    "name": "",
                    "type": "address"
                }
            ],
            "stateMutability": "view",
            "type": "function"
        },
        {
            "inputs": [],
            "name": "renounceOwnership",
            "outputs": [],
            "stateMutability": "nonpayable",
            "type": "function"
        },
        {
            "inputs": [
                {
                    "internalType": "uint256[]",
                    "name": "tokenIds",
                    "type": "uint256[]"
                }
            ],
            "name": "stake",
            "outputs": [],
            "stateMutability": "nonpayable",
            "type": "function"
        },
        {
            "inputs": [
                {
                    "internalType": "address",
                    "name": "account",
                    "type": "address"
                }
            ],
            "name": "tokensOfOwner",
            "outputs": [
                {
                    "internalType": "uint256[]",
                    "name": "ownerTokens",
                    "type": "uint256[]"
                }
            ],
            "stateMutability": "view",
            "type": "function"
        },
        {
            "inputs": [],
            "name": "totalStaked",
            "outputs": [
                {
                    "internalType": "uint256",
                    "name": "",
                    "type": "uint256"
                }
            ],
            "stateMutability": "view",
            "type": "function"
        },
        {
            "inputs": [
                {
                    "internalType": "address",
                    "name": "newOwner",
                    "type": "address"
                }
            ],
            "name": "transferOwnership",
            "outputs": [],
            "stateMutability": "nonpayable",
            "type": "function"
        },
        {
            "inputs": [
                {
                    "internalType": "uint256[]",
                    "name": "tokenIds",
                    "type": "uint256[]"
                }
            ],
            "name": "unstake",
            "outputs": [],
            "stateMutability": "nonpayable",
            "type": "function"
        },
        {
            "inputs": [
                {
                    "internalType": "uint256",
                    "name": "",
                    "type": "uint256"
                }
            ],
            "name": "vault",
            "outputs": [
                {
                    "internalType": "uint24",
                    "name": "tokenId",
                    "type": "uint24"
                },
                {
                    "internalType": "uint48",
                    "name": "timestamp",
                    "type": "uint48"
                },
                {
                    "internalType": "address",
                    "name": "owner",
                    "type": "address"
                }
            ],
            "stateMutability": "view",
            "type": "function"
        }
    ],
    "bytecode": "0x60806040523480156200001157600080fd5b5060405162002586380380620025868339818101604052810190620000379190620001db565b620000576200004b620000e160201b60201c565b620000e960201b60201c565b81600260006101000a81548173ffffffffffffffffffffffffffffffffffffffff021916908373ffffffffffffffffffffffffffffffffffffffff16021790555080600360006101000a81548173ffffffffffffffffffffffffffffffffffffffff021916908373ffffffffffffffffffffffffffffffffffffffff1602179055505050620002ac565b600033905090565b60008060009054906101000a900473ffffffffffffffffffffffffffffffffffffffff169050816000806101000a81548173ffffffffffffffffffffffffffffffffffffffff021916908373ffffffffffffffffffffffffffffffffffffffff1602179055508173ffffffffffffffffffffffffffffffffffffffff168173ffffffffffffffffffffffffffffffffffffffff167f8be0079c531659141344cd1fd0a4f28419497f9722a3daafe3b4186f6b6457e060405160405180910390a35050565b600081519050620001be8162000278565b92915050565b600081519050620001d58162000292565b92915050565b60008060408385031215620001ef57600080fd5b6000620001ff85828601620001ad565b92505060206200021285828601620001c4565b9150509250929050565b6000620002298262000258565b9050919050565b60006200023d826200021c565b9050919050565b600062000251826200021c565b9050919050565b600073ffffffffffffffffffffffffffffffffffffffff82169050919050565b620002838162000230565b81146200028f57600080fd5b50565b6200029d8162000244565b8114620002a957600080fd5b50565b6122ca80620002bc6000396000f3fe608060405234801561001057600080fd5b50600436106100cf5760003560e01c8063817b1cd21161008c5780638da5cb5b116100665780638da5cb5b14610226578063c36be35714610244578063e449f34114610260578063f2fde38b1461027c576100cf565b8063817b1cd2146101a657806381a36fb6146101c45780638462151c146101f6576100cf565b80630fbf0a93146100d4578063150b7a02146100f05780636ba4c1381461012057806370a082311461013c578063715018a61461016c5780637e75dd6014610176575b600080fd5b6100ee60048036038101906100e991906119bc565b610298565b005b61010a600480360381019061010591906118e4565b61065b565b6040516101179190611d3b565b60405180910390f35b61013a600480360381019061013591906119bc565b6106de565b005b61015660048036038101906101519190611892565b6106ef565b6040516101639190611e4d565b60405180910390f35b610174610840565b005b610190600480360381019061018b9190611964565b6108c8565b60405161019d9190611cfe565b60405180910390f35b6101ae610af4565b6040516101bb9190611e4d565b60405180910390f35b6101de60048036038101906101d99190611a01565b610afa565b6040516101ed93929190611e16565b60405180910390f35b610210600480360381019061020b9190611892565b610b65565b60405161021d9190611d19565b60405180910390f35b61022e610eaf565b60405161023b9190611c4c565b60405180910390f35b61025e60048036038101906102599190611964565b610ed8565b005b61027a600480360381019061027591906119bc565b610eea565b005b61029660048036038101906102919190611892565b610efb565b005b600082829050600160008282546102af9190611edf565b9250508190555060005b83839050811015610655578383828181106102fd577f4e487b7100000000000000000000000000000000000000000000000000000000600052603260045260246000fd5b9050602002013591503373ffffffffffffffffffffffffffffffffffffffff16600260009054906101000a900473ffffffffffffffffffffffffffffffffffffffff1673ffffffffffffffffffffffffffffffffffffffff16636352211e846040518263ffffffff1660e01b81526004016103789190611e4d565b60206040518083038186803b15801561039057600080fd5b505afa1580156103a4573d6000803e3d6000fd5b505050506040513d601f19601f820116820180604052508101906103c891906118bb565b73ffffffffffffffffffffffffffffffffffffffff161461041e576040517f08c379a000000000000000000000000000000000000000000000000000000000815260040161041590611d76565b60405180910390fd5b60006004600084815260200190815260200160002060000160009054906101000a900462ffffff1662ffffff161461048b576040517f08c379a000000000000000000000000000000000000000000000000000000000815260040161048290611df6565b60405180910390fd5b600260009054906101000a900473ffffffffffffffffffffffffffffffffffffffff1673ffffffffffffffffffffffffffffffffffffffff166323b872dd3330856040518463ffffffff1660e01b81526004016104ea93929190611c67565b600060405180830381600087803b15801561050457600080fd5b505af1158015610518573d6000803e3d6000fd5b505050507f36b3725f1783bad4ff05b7f4c077c3aa68eeb23a4d054ba189db4d01ac278d3933834260405161054f93929190611cc7565b60405180910390a160405180606001604052808362ffffff1681526020014265ffffffffffff1681526020013373ffffffffffffffffffffffffffffffffffffffff168152506004600084815260200190815260200160002060008201518160000160006101000a81548162ffffff021916908362ffffff16021790555060208201518160000160036101000a81548165ffffffffffff021916908365ffffffffffff16021790555060408201518160000160096101000a81548173ffffffffffffffffffffffffffffffffffffffff021916908373ffffffffffffffffffffffffffffffffffffffff160217905550905050808061064d9061207d565b9150506102b9565b50505050565b60008073ffffffffffffffffffffffffffffffffffffffff168573ffffffffffffffffffffffffffffffffffffffff16146106cb576040517f08c379a00000000000000000000000000000000000000000000000000000000081526004016106c290611dd6565b60405180910390fd5b63150b7a0260e01b905095945050505050565b6106eb3383836000610ff3565b5050565b600080600090506000600260009054906101000a900473ffffffffffffffffffffffffffffffffffffffff1673ffffffffffffffffffffffffffffffffffffffff166318160ddd6040518163ffffffff1660e01b815260040160206040518083038186803b15801561076057600080fd5b505afa158015610774573d6000803e3d6000fd5b505050506040513d601f19601f820116820180604052508101906107989190611a2a565b90506000600190505b818111610835578473ffffffffffffffffffffffffffffffffffffffff166004600083815260200190815260200160002060000160099054906101000a900473ffffffffffffffffffffffffffffffffffffffff1673ffffffffffffffffffffffffffffffffffffffff1614156108225760018361081f9190611edf565b92505b808061082d9061207d565b9150506107a1565b508192505050919050565b6108486113c2565b73ffffffffffffffffffffffffffffffffffffffff16610866610eaf565b73ffffffffffffffffffffffffffffffffffffffff16146108bc576040517f08c379a00000000000000000000000000000000000000000000000000000000081526004016108b390611d96565b60405180910390fd5b6108c660006113ca565b565b6108d0611788565b600080600090506000805b86869050811015610ac65786868281811061091f577f4e487b7100000000000000000000000000000000000000000000000000000000600052603260045260246000fd5b9050602002013593506000600460008681526020019081526020016000206040518060600160405290816000820160009054906101000a900462ffffff1662ffffff1662ffffff1681526020016000820160039054906101000a900465ffffffffffff1665ffffffffffff1665ffffffffffff1681526020016000820160099054906101000a900473ffffffffffffffffffffffffffffffffffffffff1673ffffffffffffffffffffffffffffffffffffffff1673ffffffffffffffffffffffffffffffffffffffff168152505090508873ffffffffffffffffffffffffffffffffffffffff16816040015173ffffffffffffffffffffffffffffffffffffffff1614610a61576040517f08c379a0000000000000000000000000000000000000000000000000000000008152600401610a5890611db6565b60405180910390fd5b6000816020015165ffffffffffff169050620151808142610a829190611fc0565b683635c9adc5dea00000610a969190611f66565b610aa09190611f35565b9350606484610aaf9190611f35565b945050508080610abe9061207d565b9150506108db565b506000821115610ae9576040518060200160405280838152509350505050610aed565b5050505b9392505050565b60015481565b60046020528060005260406000206000915090508060000160009054906101000a900462ffffff16908060000160039054906101000a900465ffffffffffff16908060000160099054906101000a900473ffffffffffffffffffffffffffffffffffffffff16905083565b60606000600260009054906101000a900473ffffffffffffffffffffffffffffffffffffffff1673ffffffffffffffffffffffffffffffffffffffff166318160ddd6040518163ffffffff1660e01b815260040160206040518083038186803b158015610bd157600080fd5b505afa158015610be5573d6000803e3d6000fd5b505050506040513d601f19601f82011682018060405250810190610c099190611a2a565b905060008167ffffffffffffffff811115610c4d577f4e487b7100000000000000000000000000000000000000000000000000000000600052604160045260246000fd5b604051908082528060200260200182016040528015610c7b5781602001602082028036833780820191505090505b509050600080600190505b838111610d8a578573ffffffffffffffffffffffffffffffffffffffff166004600083815260200190815260200160002060000160099054906101000a900473ffffffffffffffffffffffffffffffffffffffff1673ffffffffffffffffffffffffffffffffffffffff161415610d77576004600082815260200190815260200160002060000160009054906101000a900462ffffff1662ffffff16838381518110610d5b577f4e487b7100000000000000000000000000000000000000000000000000000000600052603260045260246000fd5b602002602001018181525050600182610d749190611edf565b91505b8080610d829061207d565b915050610c86565b5060008167ffffffffffffffff811115610dcd577f4e487b7100000000000000000000000000000000000000000000000000000000600052604160045260246000fd5b604051908082528060200260200182016040528015610dfb5781602001602082028036833780820191505090505b50905060005b82811015610ea257838181518110610e42577f4e487b7100000000000000000000000000000000000000000000000000000000600052603260045260246000fd5b6020026020010151828281518110610e83577f4e487b7100000000000000000000000000000000000000000000000000000000600052603260045260246000fd5b6020026020010181815250508080610e9a9061207d565b915050610e01565b5080945050505050919050565b60008060009054906101000a900473ffffffffffffffffffffffffffffffffffffffff16905090565b610ee58383836000610ff3565b505050565b610ef73383836001610ff3565b5050565b610f036113c2565b73ffffffffffffffffffffffffffffffffffffffff16610f21610eaf565b73ffffffffffffffffffffffffffffffffffffffff1614610f77576040517f08c379a0000000000000000000000000000000000000000000000000000000008152600401610f6e90611d96565b60405180910390fd5b600073ffffffffffffffffffffffffffffffffffffffff168173ffffffffffffffffffffffffffffffffffffffff161415610fe7576040517f08c379a0000000000000000000000000000000000000000000000000000000008152600401610fde90611d56565b60405180910390fd5b610ff0816113ca565b50565b600080600090506000805b868690508110156112d457868682818110611042577f4e487b7100000000000000000000000000000000000000000000000000000000600052603260045260246000fd5b9050602002013593506000600460008681526020019081526020016000206040518060600160405290816000820160009054906101000a900462ffffff1662ffffff1662ffffff1681526020016000820160039054906101000a900465ffffffffffff1665ffffffffffff1665ffffffffffff1681526020016000820160099054906101000a900473ffffffffffffffffffffffffffffffffffffffff1673ffffffffffffffffffffffffffffffffffffffff1673ffffffffffffffffffffffffffffffffffffffff168152505090508873ffffffffffffffffffffffffffffffffffffffff16816040015173ffffffffffffffffffffffffffffffffffffffff1614611184576040517f08c379a000000000000000000000000000000000000000000000000000000000815260040161117b90611db6565b60405180910390fd5b6000816020015165ffffffffffff1690506201518081426111a59190611fc0565b683635c9adc5dea000006111b99190611f66565b6111c39190611f35565b93506064846111d29190611f35565b945060405180606001604052808762ffffff1681526020014265ffffffffffff1681526020018b73ffffffffffffffffffffffffffffffffffffffff168152506004600088815260200190815260200160002060008201518160000160006101000a81548162ffffff021916908362ffffff16021790555060208201518160000160036101000a81548165ffffffffffff021916908365ffffffffffff16021790555060408201518160000160096101000a81548173ffffffffffffffffffffffffffffffffffffffff021916908373ffffffffffffffffffffffffffffffffffffffff160217905550905050505080806112cc9061207d565b915050610ffe565b50600082111561136e57600360009054906101000a900473ffffffffffffffffffffffffffffffffffffffff1673ffffffffffffffffffffffffffffffffffffffff166340c10f1988846040518363ffffffff1660e01b815260040161133b929190611c9e565b600060405180830381600087803b15801561135557600080fd5b505af1158015611369573d6000803e3d6000fd5b505050505b83156113805761137f87878761148e565b5b7fd8138f8a3f377c5259ca548e70e4c2de94f129f5a11036a15b69513cba2b426a87836040516113b1929190611c9e565b60405180910390a150505050505050565b600033905090565b60008060009054906101000a900473ffffffffffffffffffffffffffffffffffffffff169050816000806101000a81548173ffffffffffffffffffffffffffffffffffffffff021916908373ffffffffffffffffffffffffffffffffffffffff1602179055508173ffffffffffffffffffffffffffffffffffffffff168173ffffffffffffffffffffffffffffffffffffffff167f8be0079c531659141344cd1fd0a4f28419497f9722a3daafe3b4186f6b6457e060405160405180910390a35050565b600082829050600160008282546114a59190611fc0565b9250508190555060005b83839050811015611781578383828181106114f3577f4e487b7100000000000000000000000000000000000000000000000000000000600052603260045260246000fd5b9050602002013591506000600460008481526020019081526020016000206040518060600160405290816000820160009054906101000a900462ffffff1662ffffff1662ffffff1681526020016000820160039054906101000a900465ffffffffffff1665ffffffffffff1665ffffffffffff1681526020016000820160099054906101000a900473ffffffffffffffffffffffffffffffffffffffff1673ffffffffffffffffffffffffffffffffffffffff1673ffffffffffffffffffffffffffffffffffffffff168152505090503373ffffffffffffffffffffffffffffffffffffffff16816040015173ffffffffffffffffffffffffffffffffffffffff1614611635576040517f08c379a000000000000000000000000000000000000000000000000000000000815260040161162c90611db6565b60405180910390fd5b60046000848152602001908152602001600020600080820160006101000a81549062ffffff02191690556000820160036101000a81549065ffffffffffff02191690556000820160096101000a81549073ffffffffffffffffffffffffffffffffffffffff021916905550507fc486b9458a8637650d84d262414833a5a457bc91ae86b7da110386c8c3fa255b8684426040516116d493929190611cc7565b60405180910390a1600260009054906101000a900473ffffffffffffffffffffffffffffffffffffffff1673ffffffffffffffffffffffffffffffffffffffff166323b872dd3088866040518463ffffffff1660e01b815260040161173b93929190611c67565b600060405180830381600087803b15801561175557600080fd5b505af1158015611769573d6000803e3d6000fd5b505050505080806117799061207d565b9150506114af565b5050505050565b6040518060200160405280600190602082028036833780820191505090505090565b6000813590506117b981612266565b92915050565b6000815190506117ce81612266565b92915050565b60008083601f8401126117e657600080fd5b8235905067ffffffffffffffff8111156117ff57600080fd5b60208301915083602082028301111561181757600080fd5b9250929050565b60008083601f84011261183057600080fd5b8235905067ffffffffffffffff81111561184957600080fd5b60208301915083600182028301111561186157600080fd5b9250929050565b6000813590506118778161227d565b92915050565b60008151905061188c8161227d565b92915050565b6000602082840312156118a457600080fd5b60006118b2848285016117aa565b91505092915050565b6000602082840312156118cd57600080fd5b60006118db848285016117bf565b91505092915050565b6000806000806000608086880312156118fc57600080fd5b600061190a888289016117aa565b955050602061191b888289016117aa565b945050604061192c88828901611868565b935050606086013567ffffffffffffffff81111561194957600080fd5b6119558882890161181e565b92509250509295509295909350565b60008060006040848603121561197957600080fd5b6000611987868287016117aa565b935050602084013567ffffffffffffffff8111156119a457600080fd5b6119b0868287016117d4565b92509250509250925092565b600080602083850312156119cf57600080fd5b600083013567ffffffffffffffff8111156119e957600080fd5b6119f5858286016117d4565b92509250509250929050565b600060208284031215611a1357600080fd5b6000611a2184828501611868565b91505092915050565b600060208284031215611a3c57600080fd5b6000611a4a8482850161187d565b91505092915050565b6000611a5f8383611c1f565b60208301905092915050565b611a7481611ff4565b82525050565b611a8381611e82565b611a8d8184611eb2565b9250611a9882611e68565b8060005b83811015611ac9578151611ab08782611a53565b9650611abb83611e98565b925050600181019050611a9c565b505050505050565b6000611adc82611e8d565b611ae68185611ebd565b9350611af183611e72565b8060005b83811015611b22578151611b098882611a53565b9750611b1483611ea5565b925050600181019050611af5565b5085935050505092915050565b611b3881612006565b82525050565b6000611b4b602683611ece565b9150611b5682612124565b604082019050919050565b6000611b6e600e83611ece565b9150611b7982612173565b602082019050919050565b6000611b91602083611ece565b9150611b9c8261219c565b602082019050919050565b6000611bb4600c83611ece565b9150611bbf826121c5565b602082019050919050565b6000611bd7602283611ece565b9150611be2826121ee565b604082019050919050565b6000611bfa600e83611ece565b9150611c058261223d565b602082019050919050565b611c1981612052565b82525050565b611c2881612061565b82525050565b611c3781612061565b82525050565b611c468161206b565b82525050565b6000602082019050611c616000830184611a6b565b92915050565b6000606082019050611c7c6000830186611a6b565b611c896020830185611a6b565b611c966040830184611c2e565b949350505050565b6000604082019050611cb36000830185611a6b565b611cc06020830184611c2e565b9392505050565b6000606082019050611cdc6000830186611a6b565b611ce96020830185611c2e565b611cf66040830184611c2e565b949350505050565b6000602082019050611d136000830184611a7a565b92915050565b60006020820190508181036000830152611d338184611ad1565b905092915050565b6000602082019050611d506000830184611b2f565b92915050565b60006020820190508181036000830152611d6f81611b3e565b9050919050565b60006020820190508181036000830152611d8f81611b61565b9050919050565b60006020820190508181036000830152611daf81611b84565b9050919050565b60006020820190508181036000830152611dcf81611ba7565b9050919050565b60006020820190508181036000830152611def81611bca565b9050919050565b60006020820190508181036000830152611e0f81611bed565b9050919050565b6000606082019050611e2b6000830186611c10565b611e386020830185611c3d565b611e456040830184611a6b565b949350505050565b6000602082019050611e626000830184611c2e565b92915050565b6000819050919050565b6000819050602082019050919050565b600060019050919050565b600081519050919050565b6000602082019050919050565b6000602082019050919050565b600081905092915050565b600082825260208201905092915050565b600082825260208201905092915050565b6000611eea82612061565b9150611ef583612061565b9250827fffffffffffffffffffffffffffffffffffffffffffffffffffffffffffffffff03821115611f2a57611f296120c6565b5b828201905092915050565b6000611f4082612061565b9150611f4b83612061565b925082611f5b57611f5a6120f5565b5b828204905092915050565b6000611f7182612061565b9150611f7c83612061565b9250817fffffffffffffffffffffffffffffffffffffffffffffffffffffffffffffffff0483118215151615611fb557611fb46120c6565b5b828202905092915050565b6000611fcb82612061565b9150611fd683612061565b925082821015611fe957611fe86120c6565b5b828203905092915050565b6000611fff82612032565b9050919050565b60007fffffffff0000000000000000000000000000000000000000000000000000000082169050919050565b600073ffffffffffffffffffffffffffffffffffffffff82169050919050565b600062ffffff82169050919050565b6000819050919050565b600065ffffffffffff82169050919050565b600061208882612061565b91507fffffffffffffffffffffffffffffffffffffffffffffffffffffffffffffffff8214156120bb576120ba6120c6565b5b600182019050919050565b7f4e487b7100000000000000000000000000000000000000000000000000000000600052601160045260246000fd5b7f4e487b7100000000000000000000000000000000000000000000000000000000600052601260045260246000fd5b7f4f776e61626c653a206e6577206f776e657220697320746865207a65726f206160008201527f6464726573730000000000000000000000000000000000000000000000000000602082015250565b7f6e6f7420796f757220746f6b656e000000000000000000000000000000000000600082015250565b7f4f776e61626c653a2063616c6c6572206973206e6f7420746865206f776e6572600082015250565b7f6e6f7420616e206f776e65720000000000000000000000000000000000000000600082015250565b7f43616e6e6f742073656e64206e66747320746f205661756c742064697265637460008201527f6c79000000000000000000000000000000000000000000000000000000000000602082015250565b7f616c7265616479207374616b6564000000000000000000000000000000000000600082015250565b61226f81611ff4565b811461227a57600080fd5b50565b61228681612061565b811461229157600080fd5b5056fea264697066735822122023422f1916da7c9923ba4f123c9441f2f0a66be37968f889389fa698cf36196a64736f6c63430008040033",
    "linkReferences": {},
    "deployedLinkReferences": {}
}